{
  "contractName": "healthcare",
  "abi": [
    {
      "inputs": [
        {
          "internalType": "uint256",
          "name": "",
          "type": "uint256"
        }
      ],
      "name": "assignedMedicines",
      "outputs": [
        {
          "internalType": "uint256",
          "name": "dated",
          "type": "uint256"
        },
        {
          "internalType": "string",
          "name": "medicineName",
          "type": "string"
        },
        {
          "internalType": "uint256",
          "name": "dosage",
          "type": "uint256"
        },
        {
          "internalType": "uint256",
          "name": "dosageDuration",
          "type": "uint256"
        },
        {
          "internalType": "string",
          "name": "instruction",
          "type": "string"
        }
      ],
      "stateMutability": "view",
      "type": "function",
      "constant": true
    },
    {
      "inputs": [
        {
          "internalType": "uint256",
          "name": "",
          "type": "uint256"
        }
      ],
      "name": "doctors",
      "outputs": [
        {
          "internalType": "string",
          "name": "name",
          "type": "string"
        },
        {
          "internalType": "address",
          "name": "docAddress",
          "type": "address"
        }
      ],
      "stateMutability": "view",
      "type": "function",
      "constant": true
    },
    {
      "inputs": [
        {
          "internalType": "uint256",
          "name": "",
          "type": "uint256"
        }
      ],
      "name": "patients",
      "outputs": [
        {
          "internalType": "string",
          "name": "patientName",
          "type": "string"
        },
        {
          "internalType": "uint256",
          "name": "patientId",
          "type": "uint256"
        },
        {
          "internalType": "uint256",
          "name": "age",
          "type": "uint256"
        },
        {
          "internalType": "uint256",
          "name": "contact",
          "type": "uint256"
        },
        {
          "internalType": "address",
          "name": "patientAddress",
          "type": "address"
        }
      ],
      "stateMutability": "view",
      "type": "function",
      "constant": true
    },
    {
      "inputs": [
        {
          "internalType": "string",
          "name": "_name",
          "type": "string"
        },
        {
          "internalType": "uint256",
          "name": "_age",
          "type": "uint256"
        },
        {
          "internalType": "uint256",
          "name": "_contact",
          "type": "uint256"
        }
      ],
      "name": "registerPatient",
      "outputs": [],
      "stateMutability": "nonpayable",
      "type": "function"
    },
    {
      "inputs": [
        {
          "internalType": "uint256",
          "name": "_patientId",
          "type": "uint256"
        },
        {
          "internalType": "string",
          "name": "_medName",
          "type": "string"
        },
        {
          "internalType": "uint256",
          "name": "_dosage",
          "type": "uint256"
        },
        {
          "internalType": "uint256",
          "name": "_dosageDuration",
          "type": "uint256"
        },
        {
          "internalType": "string",
          "name": "_instructions",
          "type": "string"
        }
      ],
      "name": "patientMedicines",
      "outputs": [],
      "stateMutability": "nonpayable",
      "type": "function"
    },
    {
      "inputs": [
        {
          "internalType": "uint256",
          "name": "_patientId",
          "type": "uint256"
        },
        {
          "internalType": "address",
          "name": "_docAddress",
          "type": "address"
        },
        {
          "internalType": "string",
          "name": "_docName",
          "type": "string"
        }
      ],
      "name": "addDoctor",
      "outputs": [],
      "stateMutability": "nonpayable",
      "type": "function"
    }
  ],
  "bytecode": "0x6080604052600060025534801561001557600080fd5b50610fb8806100256000396000f3fe608060405234801561001057600080fd5b50600436106100625760003560e01c8063219ac04e146100675780636491c693146100835780636efb1b841461009f57806393119a83146100d0578063a835c7a514610104578063c641ab9314610120575b600080fd5b610081600480360381019061007c9190610889565b610154565b005b61009d6004803603810190610098919061093c565b610250565b005b6100b960048036038101906100b491906109ab565b610347565b6040516100c7929190610a98565b60405180910390f35b6100ea60048036038101906100e591906109ab565b610413565b6040516100fb959493929190610ad7565b60405180910390f35b61011e60048036038101906101199190610b5d565b6104f1565b005b61013a600480360381019061013591906109ab565b610594565b60405161014b959493929190610bcc565b60405180910390f35b3373ffffffffffffffffffffffffffffffffffffffff166003600087815260200190815260200160002060010160009054906101000a900473ffffffffffffffffffffffffffffffffffffffff1673ffffffffffffffffffffffffffffffffffffffff16146101c257600080fd5b6040518060a00160405280428152602001858152602001848152602001838152602001828152506001600087815260200190815260200160002060008201518160000155602082015181600101908161021b9190610e39565b50604082015181600201556060820151816003015560808201518160040190816102459190610e39565b509050505050505050565b6040518060a0016040528084815260200160025481526020018381526020018281526020013373ffffffffffffffffffffffffffffffffffffffff16815250600080600254815260200190815260200160002060008201518160000190816102b89190610e39565b5060208201518160010155604082015181600201556060820151816003015560808201518160040160006101000a81548173ffffffffffffffffffffffffffffffffffffffff021916908373ffffffffffffffffffffffffffffffffffffffff1602179055509050506103296106da565b506002600081548092919061033d90610f3a565b9190505550505050565b600360205280600052604060002060009150905080600001805461036a90610c5c565b80601f016020809104026020016040519081016040528092919081815260200182805461039690610c5c565b80156103e35780601f106103b8576101008083540402835291602001916103e3565b820191906000526020600020905b8154815290600101906020018083116103c657829003601f168201915b5050505050908060010160009054906101000a900473ffffffffffffffffffffffffffffffffffffffff16905082565b600060205280600052604060002060009150905080600001805461043690610c5c565b80601f016020809104026020016040519081016040528092919081815260200182805461046290610c5c565b80156104af5780601f10610484576101008083540402835291602001916104af565b820191906000526020600020905b81548152906001019060200180831161049257829003601f168201915b5050505050908060010154908060020154908060030154908060040160009054906101000a900473ffffffffffffffffffffffffffffffffffffffff16905085565b60405180604001604052808281526020018373ffffffffffffffffffffffffffffffffffffffff168152506003600085815260200190815260200160002060008201518160000190816105449190610e39565b5060208201518160010160006101000a81548173ffffffffffffffffffffffffffffffffffffffff021916908373ffffffffffffffffffffffffffffffffffffffff160217905550905050505050565b60016020528060005260406000206000915090508060000154908060010180546105bd90610c5c565b80601f01602080910402602001604051908101604052809291908181526020018280546105e990610c5c565b80156106365780601f1061060b57610100808354040283529160200191610636565b820191906000526020600020905b81548152906001019060200180831161061957829003601f168201915b50505050509080600201549080600301549080600401805461065790610c5c565b80601f016020809104026020016040519081016040528092919081815260200182805461068390610c5c565b80156106d05780601f106106a5576101008083540402835291602001916106d0565b820191906000526020600020905b8154815290600101906020018083116106b357829003601f168201915b5050505050905085565b6000806000600254815260200190815260200160002060010154905090565b6000604051905090565b600080fd5b600080fd5b6000819050919050565b6107208161070d565b811461072b57600080fd5b50565b60008135905061073d81610717565b92915050565b600080fd5b600080fd5b6000601f19601f8301169050919050565b7f4e487b7100000000000000000000000000000000000000000000000000000000600052604160045260246000fd5b6107968261074d565b810181811067ffffffffffffffff821117156107b5576107b461075e565b5b80604052505050565b60006107c86106f9565b90506107d4828261078d565b919050565b600067ffffffffffffffff8211156107f4576107f361075e565b5b6107fd8261074d565b9050602081019050919050565b82818337600083830152505050565b600061082c610827846107d9565b6107be565b90508281526020810184848401111561084857610847610748565b5b61085384828561080a565b509392505050565b600082601f8301126108705761086f610743565b5b8135610880848260208601610819565b91505092915050565b600080600080600060a086880312156108a5576108a4610703565b5b60006108b38882890161072e565b955050602086013567ffffffffffffffff8111156108d4576108d3610708565b5b6108e08882890161085b565b94505060406108f18882890161072e565b93505060606109028882890161072e565b925050608086013567ffffffffffffffff81111561092357610922610708565b5b61092f8882890161085b565b9150509295509295909350565b60008060006060848603121561095557610954610703565b5b600084013567ffffffffffffffff81111561097357610972610708565b5b61097f8682870161085b565b93505060206109908682870161072e565b92505060406109a18682870161072e565b9150509250925092565b6000602082840312156109c1576109c0610703565b5b60006109cf8482850161072e565b91505092915050565b600081519050919050565b600082825260208201905092915050565b60005b83811015610a125780820151818401526020810190506109f7565b60008484015250505050565b6000610a29826109d8565b610a3381856109e3565b9350610a438185602086016109f4565b610a4c8161074d565b840191505092915050565b600073ffffffffffffffffffffffffffffffffffffffff82169050919050565b6000610a8282610a57565b9050919050565b610a9281610a77565b82525050565b60006040820190508181036000830152610ab28185610a1e565b9050610ac16020830184610a89565b9392505050565b610ad18161070d565b82525050565b600060a0820190508181036000830152610af18188610a1e565b9050610b006020830187610ac8565b610b0d6040830186610ac8565b610b1a6060830185610ac8565b610b276080830184610a89565b9695505050505050565b610b3a81610a77565b8114610b4557600080fd5b50565b600081359050610b5781610b31565b92915050565b600080600060608486031215610b7657610b75610703565b5b6000610b848682870161072e565b9350506020610b9586828701610b48565b925050604084013567ffffffffffffffff811115610bb657610bb5610708565b5b610bc28682870161085b565b9150509250925092565b600060a082019050610be16000830188610ac8565b8181036020830152610bf38187610a1e565b9050610c026040830186610ac8565b610c0f6060830185610ac8565b8181036080830152610c218184610a1e565b90509695505050505050565b7f4e487b7100000000000000000000000000000000000000000000000000000000600052602260045260246000fd5b60006002820490506001821680610c7457607f821691505b602082108103610c8757610c86610c2d565b5b50919050565b60008190508160005260206000209050919050565b60006020601f8301049050919050565b600082821b905092915050565b600060088302610cef7fffffffffffffffffffffffffffffffffffffffffffffffffffffffffffffffff82610cb2565b610cf98683610cb2565b95508019841693508086168417925050509392505050565b6000819050919050565b6000610d36610d31610d2c8461070d565b610d11565b61070d565b9050919050565b6000819050919050565b610d5083610d1b565b610d64610d5c82610d3d565b848454610cbf565b825550505050565b600090565b610d79610d6c565b610d84818484610d47565b505050565b5b81811015610da857610d9d600082610d71565b600181019050610d8a565b5050565b601f821115610ded57610dbe81610c8d565b610dc784610ca2565b81016020851015610dd6578190505b610dea610de285610ca2565b830182610d89565b50505b505050565b600082821c905092915050565b6000610e1060001984600802610df2565b1980831691505092915050565b6000610e298383610dff565b9150826002028217905092915050565b610e42826109d8565b67ffffffffffffffff811115610e5b57610e5a61075e565b5b610e658254610c5c565b610e70828285610dac565b600060209050601f831160018114610ea35760008415610e91578287015190505b610e9b8582610e1d565b865550610f03565b601f198416610eb186610c8d565b60005b82811015610ed957848901518255600182019150602085019450602081019050610eb4565b86831015610ef65784890151610ef2601f891682610dff565b8355505b6001600288020188555050505b505050505050565b7f4e487b7100000000000000000000000000000000000000000000000000000000600052601160045260246000fd5b6000610f458261070d565b91507fffffffffffffffffffffffffffffffffffffffffffffffffffffffffffffffff8203610f7757610f76610f0b565b5b60018201905091905056fea26469706673582212208d39fd2b5a534cc93e9807a713a07a98cd897737de258d0eed6b8d162d11b05a64736f6c63430008110033",
  "immutableReferences": {},
  "source": "// SPDX-License-Identifier: GPL-3.0\r\n\r\npragma solidity >=0.4.0 <0.9.0;\r\n\r\ncontract healthcare{\r\n\r\n    //patient structure\r\n    struct patient{\r\n        string patientName;\r\n        uint patientId;\r\n        uint age;\r\n        uint contact;\r\n        address patientAddress;\r\n        \r\n    }\r\n\r\n    //storing multiple patients\r\n    mapping(uint => patient) public patients;\r\n\r\n\r\n    //medicine structure\r\n    struct medicine{\r\n        uint dated;\r\n        string medicineName;\r\n        uint dosage; //no. of medicines\r\n        uint dosageDuration; //no. of days the medicine is given for\r\n        string instruction; //after meal or before meal\r\n\r\n\r\n    }\r\n\r\n    \r\n    //assigning medicines according to patientId\r\n    mapping(uint=>medicine) public assignedMedicines;\r\n\r\n    uint256 tempId=0;\r\n\r\n    //doctor structure\r\n    struct doctor{\r\n        string name;\r\n        address docAddress;\r\n    }\r\n    // patientId--> Doctor\r\n    mapping(uint=>doctor) public doctors;\r\n\r\n    //registring patients\r\n    function registerPatient(string memory _name, uint _age ,uint _contact) public  {\r\n\r\n        patients[tempId]= patient(_name,tempId,_age,_contact,msg.sender);\r\n        returnId();\r\n        tempId++;\r\n    }\r\n\r\n    //assigning medicines\r\n    function patientMedicines(uint _patientId , string memory _medName, uint _dosage , uint _dosageDuration , string memory _instructions) public {\r\n     require(doctors[_patientId].docAddress== msg.sender); \r\n    assignedMedicines[_patientId] = medicine(block.timestamp,_medName,_dosage,_dosageDuration,_instructions);\r\n   }\r\n\r\n   //patients patientId\r\n   function returnId() private view returns(uint) {\r\n       return patients[tempId].patientId;\r\n\r\n   }\r\n\r\n\r\n   //Adding doctors to patient profile\r\n   function addDoctor(uint _patientId, address _docAddress ,string memory _docName) public{\r\n       doctors[_patientId]= doctor(_docName,_docAddress);\r\n\r\n   }\r\n\r\n\r\n\r\n  \r\n\r\n\r\n\r\n\r\n\r\n\r\n\r\n\r\n\r\n\r\n\r\n\r\n\r\n\r\n\r\n\r\n\r\n\r\n\r\n\r\n\r\n}",
  "sourcePath": "C:\\Users\\Acer\\Desktop\\Healthcare System\\contracts\\healthcare.sol",
  "compiler": {
    "name": "solc",
    "version": "0.8.17+commit.8df45f5f.Emscripten.clang"
  },
  "schemaVersion": "3.4.10",
  "updatedAt": "2022-11-18T18:45:25.292Z",
  "networkType": "ethereum",
  "devdoc": {
    "kind": "dev",
    "methods": {},
    "version": 1
  },
  "userdoc": {
    "kind": "user",
    "methods": {},
    "version": 1
  }
}